:020000040800F2
:100000000050002079030008C1020008C302000864
:10001000C5020008C7020008C9020008000000006D
:10002000000000000000000000000000CB020008FB
:10003000CD02000800000000CF020008D102000835
:10004000C1030008C1030008C1030008C103000880
:10005000C1030008C1030008C1030008C103000870
:10006000C1030008C1030008C1030008C103000860
:10007000C1030008C1030008C1030008C103000850
:10008000C1030008C1030008C1030008C103000840
:10009000C1030008C1030008C1030008C103000830
:1000A000C1030008C1030008C1030008C103000820
:1000B000C1030008C1030008C1030008C103000810
:1000C000C1030008C1030008C1030008C103000800
:1000D000C1030008C1030008C1030008C1030008F0
:1000E000C1030008C1030008C103000800000000AC
:1000F0000000000000000000000000000000000000
:0C01000000000000000000005FF808F1A3
:10010C000348044B834202D0034B03B1184770479A
:10011C000400002004000020000000000548064BED
:10012C001B1AD90F01EBA301491002D0034B03B1E9
:10013C001847704704000020040000200000000055
:10014C0010B5064C237843B9FFF7DAFF044B13B113
:10015C000448AFF300800123237010BD040000207D
:10016C00000000000C04000808B5054B1BB1054944
:10017C000548AFF30080BDE80840FFF7CFBF00BFD4
:10018C0000000000080000200C04000808B5194A03
:10019C00136843F004031360174B5A6842F48062EF
:1001AC005A601A6842F480321A60134B1B6813F4BD
:1001BC00003FFAD0104B5A6842F480325A605A68A9
:1001CC0042F4E0125A601A6842F080721A600A4BCC
:1001DC001B6813F0007FFAD0074A536843F0020300
:1001EC005360054B5B6813F0080FFAD000F074F8FD
:1001FC0008BD00BF00200240001002400A4B1B68E3
:10020C000A4AA2FB03239B09013BB3F1807F0AD26C
:10021C004FF0E0225361064BF02183F823100023AA
:10022C00936107231361704700000020D34D6210C7
:10023C0000ED00E0074A936943F004039361064B19
:10024C001A6822F0F0021A601A6842F030021A6042
:10025C00704700BF001002400008014010B1012897
:10026C0007D07047064A136943F00203136101205B
:10027C007047034A136943F400331361002070473D
:10028C000008014010B5FFF781FFFFF7B7FFFFF73C
:10029C00D1FF074B1C680020054B1B681B1BB3F5DB
:1002AC00FA7FF9D9024B1C68FFF7D8FFF4E700BFBF
:1002BC0020000020FEE7FEE7FEE7FEE7FEE77047C2
:1002CC0070477047024A136801331360704700BFD0
:1002DC0020000020704700001F4B5B6803F00C03EC
:1002EC00042B14D0082B16D01BB11C4B1C4A1A60C3
:1002FC0002E01A4B1A4A1A60174B5B68C3F30313DC
:10030C00184AD15C154A1368CB4013607047134BE5
:10031C00134A1A60F0E7104A53685268C3F38343D8
:10032C00023312F4803F05D10F4A02FB03F30B4A50
:10033C001360E1E7084A526812F4003F05D00A4AFC
:10034C0002FB03F3054A1360D6E7054A02FB03F3ED
:10035C00024A1360D0E700BF0010024000000020EA
:10036C0000127A002404000800093D000C480D49D5
:10037C000D4A002302E0D458C4500433C4188C42F4
:10038C00F9D30A4A0A4C002301E013600432A2425A
:10039C00FBD3FFF79FFF00F00FF8FFF773FF7047D9
:1003AC0000000020040000203C0400080400002091
:1003BC0024000020FEE7000070B500260C4D0D4C0B
:1003CC00641BA410A64209D100F01AF800260A4DAD
:1003DC000A4C641BA410A64205D170BD55F8043B11
:1003EC0098470136EEE755F8043B98470136F2E79B
:1003FC0034040008340400083404000838040008ED
:10040C00F8B500BFF8BC08BC9E467047F8B500BFF5
:08041C00F8BC08BC9E467047C5
:1004240000000000000000000102030406070809A0
:040434007501000846
:040438004D0100086A
:04043C000024F400A4
:040000050800037973
:00000001FF
