:020000040800F2
:1000000000500020AD030008F5020008F7020008C8
:10001000F9020008FB020008FD02000800000000D1
:10002000000000000000000000000000FF020008C7
:100030000103000800000000030300080503000896
:10004000F5030008F5030008F5030008F5030008B0
:10005000F5030008F5030008F5030008F5030008A0
:10006000F5030008F5030008F5030008F503000890
:10007000F5030008F5030008F5030008F503000880
:10008000F5030008F5030008F5030008F503000870
:10009000F5030008F5030008F5030008F503000860
:1000A000F5030008F5030008F5030008F503000850
:1000B000F5030008F5030008F5030008F503000840
:1000C000F5030008F5030008F5030008F503000830
:1000D000F5030008F5030008F5030008F503000820
:1000E000F5030008F5030008F50300080000000010
:1000F0000000000000000000000000000000000000
:0C01000000000000000000005FF808F1A3
:10010C000348044B834202D0034B03B1184770479A
:10011C000400002004000020000000000548064BED
:10012C001B1AD90F01EBA301491002D0034B03B1E9
:10013C001847704704000020040000200000000055
:10014C0010B5064C237843B9FFF7DAFF044B13B113
:10015C000448AFF300800123237010BD040000207D
:10016C00000000004004000808B5054B1BB1054910
:10017C000548AFF30080BDE80840FFF7CFBF00BFD4
:10018C0000000000080000204004000808B5194ACF
:10019C00136843F004031360174B5A6842F48062EF
:1001AC005A601A6842F480321A60134B1B6813F4BD
:1001BC00003FFAD0104B5A6842F480325A605A68A9
:1001CC0042F4E0125A601A6842F080721A600A4BCC
:1001DC001B6813F0007FFAD0074A536843F0020300
:1001EC005360054B5B6813F0080FFAD000F08EF8E3
:1001FC0008BD00BF00200240001002400A4B1B68E3
:10020C000A4AA2FB03239B09013BB3F1807F0AD26C
:10021C004FF0E0225361064BF02183F823100023AA
:10022C00936107231361704700000020D34D6210C7
:10023C0000ED00E0074A936943F004039361064B19
:10024C001A6822F0F0021A601A6842F030021A6042
:10025C00704700BF0010024000080140104B9A6923
:10026C0042F004029A619A6942F480529A61A3F5B1
:10027C0084331A6822F0704222F470021A601A68F1
:10028C0042F430021A601A6842F030421A6003F5E8
:10029C00205338221A601A6842F040021A607047E4
:1002AC0000100240064BD860054B9B6813F0020F00
:1002BC00FAD0034B9B6813F0800FFAD1704700BF44
:1002CC000030014008B5FFF761FFFFF797FFFFF71C
:1002DC00C5FFFFF7AFFF034B1B68FF20FFF7E2FFE3
:1002EC00FEE700BF20000020FEE7FEE7FEE7FEE78A
:1002FC00FEE7704770477047024A1368013313607A
:10030C00704700BF20000020704700001F4B5B6847
:10031C0003F00C03042B14D0082B16D01BB11C4B70
:10032C001C4A1A6002E01A4B1A4A1A60174B5B6897
:10033C00C3F30313184AD15C154A1368CB401360FE
:10034C007047134B134A1A60F0E7104A536852680F
:10035C00C3F38343023312F4803F05D10F4A02FBEF
:10036C0003F30B4A1360E1E7084A526812F4003FAA
:10037C0005D00A4A02FB03F3054A1360D6E7054A87
:10038C0002FB03F3024A1360D0E700BF00100240E7
:10039C000000002000127A005804000800093D00FB
:1003AC000C480D490D4A002302E0D458C4500433C4
:1003BC00C4188C42F9D30A4A0A4C002301E013609A
:1003CC000432A242FBD3FFF79FFF00F00FF8FFF7B8
:1003DC0079FF704700000020040000207004000822
:1003EC000400002024000020FEE7000070B5002669
:1003FC000C4D0D4C641BA410A64209D100F01AF848
:10040C0000260A4D0A4C641BA410A64205D170BDEF
:10041C0055F8043B98470136EEE755F8043B9847EE
:10042C000136F2E768040008680400086804000854
:10043C006C040008F8B500BFF8BC08BC9E467047B9
:0C044C00F8B500BFF8BC08BC9E46704725
:10045800000000000000000001020304060708096C
:040468007501000812
:04046C004D01000836
:040470000024F40070
:04000005080003AD3F
:00000001FF
